:020000020000FC
:1000000055982F938F939F9324E60E94B5109F914C
:100010008F912F9103E204BD0CE005BD09E607BDF9
:1000200015E318BD559A2F938F939F9324E10E9457
:10003000B5109F918F912F9155982F938F939F93E8
:1000400021E00E94B5109F918F912F9103E204BD92
:100050000CE005BD09E607BD15E318BD559A2F93C1
:100060008F939F9324E10E94B5109F918F912F91C0
:1000700055982F938F939F9321E00E94B5109F91E5
:100080008F912F9103E204BD0CE005BD0DE807BD83
:1000900017E418BD559A2F938F939F9324E10E94E4
:1000A000B5109F918F912F9155982F938F939F9378
:1000B00021E00E94B5109F918F912F9103E204BD22
:1000C0000CE005BD0DE807BD17E418BD559A2F9348
:1000D0008F939F9324E10E94B5109F918F912F9150
:1000E00055982F938F939F9321E00E94B5109F9175
:1000F0008F912F9103E204BD0CE005BD09E607BD19
:1001000015E318BD559A2F938F939F9324E10E9476
:10011000B5109F918F912F9155982F938F939F9307
:1001200021E00E94B5109F918F912F9103E204BDB1
:100130000CE005BD09E607BD15E318BD559A2F93E0
:100140008F939F9324E10E94B5109F918F912F91DF
:1001500055982F938F939F9321E00E94B5109F9104
:100160008F912F9103E204BD0CE005BD0EE507BDA4
:100170001FE218BD559A2F938F939F9324E10E94FD
:10018000B5109F918F912F9155982F938F939F9397
:1001900021E00E94B5109F918F912F9103E204BD41
:1001A0000CE005BD0EE507BD1FE218BD559A2F9363
:1001B0008F939F9324E10E94B5109F918F912F916F
:1001C00055982F938F939F9321E00E94B5109F9194
:1001D0008F912F9103E204BD0CE005BD08E507BD3A
:1001E0001CE218BD559A2F938F939F9324E10E9490
:1001F000B5109F918F912F9155982F938F939F9327
:1002000021E00E94B5109F918F912F9103E204BDD0
:100210000CE005BD08E507BD1CE218BD559A2F93FB
:100220008F939F9324E10E94B5109F918F912F91FE
:1002300055982F938F939F9321E00E94B5109F9123
:100240008F912F9103E204BD0CE005BD0EE507BDC3
:100250001FE218BD559A2F938F939F9324E10E941C
:10026000B5109F918F912F9155982F938F939F93B6
:1002700021E00E94B5109F918F912F9103E204BD60
:100280000CE005BD0EE507BD1FE218BD559A2F9382
:100290008F939F9324E10E94B5109F918F912F918E
:1002A00055982F938F939F9321E00E94B5109F91B3
:1002B0008F912F9103E204BD0CE005BD09E607BD57
:1002C00015E318BD559A2F938F939F9324E10E94B5
:1002D000B5109F918F912F9155982F938F939F9346
:1002E00021E00E94B5109F918F912F9103E204BDF0
:1002F0000CE005BD09E607BD15E318BD559A2F931F
:100300008F939F9324E10E94B5109F918F912F911D
:1003100055982F938F939F9321E00E94B5109F9142
:100320008F912F9103E204BD0CE005BD0EE507BDE2
:100330001FE218BD559A2F938F939F9324E10E943B
:10034000B5109F918F912F9155982F938F939F93D5
:1003500021E00E94B5109F918F912F9103E204BD7F
:100360000CE005BD0EE507BD1FE218BD559A2F93A1
:100370008F939F9324E10E94B5109F918F912F91AD
:1003800055982F938F939F9321E00E94B5109F91D2
:100390008F912F9103E204BD0CE005BD06E707BD78
:1003A0001BE318BD559A2F938F939F9324E10E94CE
:1003B000B5109F918F912F9155982F938F939F9365
:1003C00021E00E94B5109F918F912F9103E204BD0F
:1003D0000CE005BD06E707BD1BE318BD559A2F933A
:1003E0008F939F9324E10E94B5109F918F912F913D
:1003F00055982F938F939F9321E00E94B5109F9162
:100400008F912F9103E204BD0CE005BD0FE907BDFC
:1004100010E518BD559A2F938F939F9324E10E9466
:10042000B5109F918F912F9155982F938F939F93F4
:1004300021E00E94B5109F918F912F9103E204BD9E
:100440000CE005BD0FE907BD10E518BD559A2F93C7
:100450008F939F9324E10E94B5109F918F912F91CC
:1004600055982F938F939F9321E00E94B5109F91F1
:100470008F912F9103E204BD0CE005BD06E707BD97
:100480001BE318BD559A2F938F939F9324E10E94ED
:10049000B5109F918F912F9155982F938F939F9384
:1004A00021E00E94B5109F918F912F9103E204BD2E
:1004B0000CE005BD06E707BD1BE318BD559A2F9359
:1004C0008F939F9324E10E94B5109F918F912F915C
:1004D00055982F938F939F9321E00E94B5109F9181
:1004E0008F912F9103E204BD0CE005BD09E607BD25
:1004F00015E318BD559A2F938F939F9324E10E9483
:10050000B5109F918F912F9155982F938F939F9313
:1005100021E00E94B5109F918F912F9103E204BDBD
:100520000CE005BD09E607BD15E318BD559A2F93EC
:100530008F939F9324E10E94B5109F918F912F91EB
:1005400055982F938F939F9321E00E94B5109F9110
:100550008F912F9103E204BD0CE005BD0EE507BDB0
:100560001FE218BD559A2F938F939F9324E10E9409
:10057000B5109F918F912F9155982F938F939F93A3
:1005800021E00E94B5109F918F912F9103E204BD4D
:100590000CE005BD0EE507BD1FE218BD559A2F936F
:1005A0008F939F9324E10E94B5109F918F912F917B
:1005B00055982F938F939F9321E00E94B5109F91A0
:1005C0008F912F9103E204BD0CE005BD09E607BD44
:1005D00015E318BD559A2F938F939F9324E10E94A2
:1005E000B5109F918F912F9155982F938F939F9333
:1005F00021E00E94B5109F918F912F9103E204BDDD
:100600000CE005BD09E607BD15E318BD559A2F930B
:100610008F939F9324E10E94B5109F918F912F910A
:1006200055982F938F939F9321E00E94B5109F912F
:100630008F912F9103E204BD0CE005BD06E707BDD5
:100640001BE318BD559A2F938F939F9324E10E942B
:10065000B5109F918F912F9155982F938F939F93C2
:1006600021E00E94B5109F918F912F9103E204BD6C
:100670000CE005BD06E707BD1BE318BD559A2F9397
:100680008F939F9324E10E94B5109F918F912F919A
:1006900055982F938F939F9321E00E94B5109F91BF
:1006A0008F912F9103E204BD0CE005BD0EE507BD5F
:1006B0001FE218BD559A2F938F939F9324E10E94B8
:1006C000B5109F918F912F9155982F938F939F9352
:1006D00021E00E94B5109F918F912F9103E204BDFC
:1006E0000CE005BD06E707BD1BE318BD559A2F9327
:1006F0008F939F9324E10E94B5109F918F912F912A
:1007000055982F938F939F9321E00E94B5109F914E
:100710008F912F9103E204BD0CE005BD09E607BDF2
:1007200015E318BD559A2F938F939F9324E10E9450
:10073000B5109F918F912F9155982F938F939F93E1
:1007400021E00E94B5109F918F912F9103E204BD8B
:100750000CE005BD09E607BD15E318BD559A2F93BA
:100760008F939F9324E10E94B5109F918F912F91B9
:1007700055982F938F939F9321E00E94B5109F91DE
:100780008F912F9103E204BD0CE005BD0DE807BD7C
:1007900017E418BD559A2F938F939F9324E10E94DD
:1007A000B5109F918F912F9155982F938F939F9371
:1007B00021E00E94B5109F918F912F9103E204BD1B
:1007C0000CE005BD0DE807BD17E418BD559A2F9341
:1007D0008F939F9324E10E94B5109F918F912F9149
:1007E00055982F938F939F9321E00E94B5109F916E
:1007F0008F912F9103E204BD0CE005BD09E607BD12
:1008000015E318BD559A2F938F939F9324E10E946F
:10081000B5109F918F912F9155982F938F939F9300
:1008200021E00E94B5109F918F912F9103E204BDAA
:100830000CE005BD09E607BD15E318BD559A2F93D9
:100840008F939F9324E10E94B5109F918F912F91D8
:1008500055982F938F939F9321E00E94B5109F91FD
:100860008F912F9103E204BD0CE005BD0EE507BD9D
:100870001FE218BD559A2F938F939F9324E10E94F6
:10088000B5109F918F912F9155982F938F939F9390
:1008900021E00E94B5109F918F912F9103E204BD3A
:1008A0000CE005BD0EE507BD1FE218BD559A2F935C
:1008B0008F939F9324E10E94B5109F918F912F9168
:1008C00055982F938F939F9321E00E94B5109F918D
:1008D0008F912F9103E204BD0CE005BD08E507BD33
:1008E0001CE218BD559A2F938F939F9324E10E9489
:1008F000B5109F918F912F9155982F938F939F9320
:1009000021E00E94B5109F918F912F9103E204BDC9
:100910000CE005BD08E507BD1CE218BD559A2F93F4
:100920008F939F9324E10E94B5109F918F912F91F7
:1009300055982F938F939F9321E00E94B5109F911C
:100940008F912F9103E204BD0CE005BD0EE507BDBC
:100950001FE218BD559A2F938F939F9324E10E9415
:10096000B5109F918F912F9155982F938F939F93AF
:1009700021E00E94B5109F918F912F9103E204BD59
:100980000CE005BD0EE507BD1FE218BD559A2F937B
:100990008F939F9324E10E94B5109F918F912F9187
:1009A00055982F938F939F9321E00E94B5109F91AC
:1009B0008F912F9103E204BD0CE005BD09E607BD50
:1009C00015E318BD559A2F938F939F9324E10E94AE
:1009D000B5109F918F912F9155982F938F939F933F
:1009E00021E00E94B5109F918F912F9103E204BDE9
:1009F0000CE005BD09E607BD15E318BD559A2F9318
:100A00008F939F9324E10E94B5109F918F912F9116
:100A100055982F938F939F9321E00E94B5109F913B
:100A20008F912F9103E204BD0CE005BD0EE507BDDB
:100A30001FE218BD559A2F938F939F9324E10E9434
:100A4000B5109F918F912F9155982F938F939F93CE
:100A500021E00E94B5109F918F912F9103E204BD78
:100A60000CE005BD0EE507BD1FE218BD559A2F939A
:100A70008F939F9324E10E94B5109F918F912F91A6
:100A800055982F938F939F9321E00E94B5109F91CB
:100A90008F912F9103E204BD0CE005BD06E707BD71
:100AA0001BE318BD559A2F938F939F9324E10E94C7
:100AB000B5109F918F912F9155982F938F939F935E
:100AC00021E00E94B5109F918F912F9103E204BD08
:100AD0000CE005BD06E707BD1BE318BD559A2F9333
:100AE0008F939F9324E10E94B5109F918F912F9136
:100AF00055982F938F939F9321E00E94B5109F915B
:100B00008F912F9103E204BD0CE005BD0FE907BDF5
:100B100010E518BD559A2F938F939F9324E10E945F
:100B2000B5109F918F912F9155982F938F939F93ED
:100B300021E00E94B5109F918F912F9103E204BD97
:100B40000CE005BD0FE907BD10E518BD559A2F93C0
:100B50008F939F9324E10E94B5109F918F912F91C5
:100B600055982F938F939F9321E00E94B5109F91EA
:100B70008F912F9103E204BD0CE005BD06E707BD90
:100B80001BE318BD559A2F938F939F9324E10E94E6
:100B9000B5109F918F912F9155982F938F939F937D
:100BA00021E00E94B5109F918F912F9103E204BD27
:100BB0000CE005BD06E707BD1BE318BD559A2F9352
:100BC0008F939F9324E10E94B5109F918F912F9155
:100BD00055982F938F939F9321E00E94B5109F917A
:100BE0008F912F9103E204BD0CE005BD09E607BD1E
:100BF00015E318BD559A2F938F939F9324E10E947C
:100C0000B5109F918F912F9155982F938F939F930C
:100C100021E00E94B5109F918F912F9103E204BDB6
:100C20000CE005BD09E607BD15E318BD559A2F93E5
:100C30008F939F9324E10E94B5109F918F912F91E4
:100C400055982F938F939F9321E00E94B5109F9109
:100C50008F912F9103E204BD0CE005BD0EE507BDA9
:100C60001FE218BD559A2F938F939F9324E10E9402
:100C7000B5109F918F912F9155982F938F939F939C
:100C800021E00E94B5109F918F912F9103E204BD46
:100C90000CE005BD0EE507BD1FE218BD559A2F9368
:100CA0008F939F9324E10E94B5109F918F912F9174
:100CB00055982F938F939F9321E00E94B5109F9199
:100CC0008F912F9103E204BD0CE005BD09E607BD3D
:100CD00015E318BD559A2F938F939F9324E10E949B
:100CE000B5109F918F912F9155982F938F939F932C
:100CF00021E00E94B5109F918F912F9103E204BDD6
:100D00000CE005BD09E607BD15E318BD559A2F9304
:100D10008F939F9324E10E94B5109F918F912F9103
:100D200055982F938F939F9321E00E94B5109F9128
:100D30008F912F9103E204BD0CE005BD06E707BDCE
:100D40001BE318BD559A2F938F939F9324E10E9424
:100D5000B5109F918F912F9155982F938F939F93BB
:100D600021E00E94B5109F918F912F9103E204BD65
:100D70000CE005BD06E707BD1BE318BD559A2F9390
:100D80008F939F9324E10E94B5109F918F912F9193
:100D900055982F938F939F9321E00E94B5109F91B8
:100DA0008F912F9103E204BD0CE005BD09E607BD5C
:100DB00015E318BD559A2F938F939F9324E10E94BA
:100DC000B5109F918F912F9155982F938F939F934B
:100DD00021E00E94B5109F918F912F9103E204BDF5
:100DE0000CE005BD09E607BD15E318BD559A2F9324
:100DF0008F939F9324E10E94B5109F918F912F9123
:100E000055982F938F939F9321E00E94B5109F9147
:100E10008F912F9103E204BD0CE005BD0DE807BDE5
:100E200017E418BD559A2F938F939F9324E10E9446
:100E3000B5109F918F912F9155982F938F939F93DA
:100E400021E00E94B5109F918F912F9103E204BD84
:100E50000CE005BD0DE807BD17E418BD559A2F93AA
:100E60008F939F9324E10E94B5109F918F912F91B2
:100E700055982F938F939F9321E00E94B5109F91D7
:100E80008F912F9103E204BD0CE005BD0EEB07BD71
:100E90001FE518BD559A2F938F939F9324E10E94CD
:100EA000B5109F918F912F9155982F938F939F936A
:100EB00021E00E94B5109F918F912F9103E204BD14
:100EC0000CE005BD0EEB07BD1FE518BD559A2F932D
:100ED0008F939F9324E10E94B5109F918F912F9142
:100EE00055982F938F939F9321E00E94B5109F9167
:100EF0008F912F9103E204BD0CE005BD0DE807BD05
:100F000017E418BD559A2F938F939F9324E10E9465
:100F1000B5109F918F912F9155982F938F939F93F9
:100F200021E00E94B5109F918F912F9103E204BDA3
:100F30000CE005BD0DE807BD17E418BD559A2F93C9
:100F40008F939F9324E10E94B5109F918F912F91D1
:100F500055982F938F939F9321E00E94B5109F91F6
:100F60008F912F9103E204BD0CE005BD0EE707BD94
:100F70001FE318BD559A2F938F939F9324E10E94EE
:100F8000B5109F918F912F9155982F938F939F9389
:100F900021E00E94B5109F918F912F9103E204BD33
:100FA0000CE005BD0EE707BD1FE318BD559A2F9352
:100FB0008F939F9324E10E94B5109F918F912F9161
:100FC00055982F938F939F9321E00E94B5109F9186
:100FD0008F912F9103E204BD0CE005BD06E707BD2C
:100FE0001BE318BD559A2F938F939F9324E10E9482
:100FF000B5109F918F912F9155982F938F939F9319
:1010000021E00E94B5109F918F912F9103E204BDC2
:101010000CE005BD06E707BD1BE318BD559A2F93ED
:101020008F939F9324E10E94B5109F918F912F91F0
:1010300055982F938F939F9321E00E94B5109F9115
:101040008F912F9103E204BD0CE005BD0EE707BDB3
:101050001FE318BD559A2F938F939F9324E10E940D
:10106000B5109F918F912F9155982F938F939F93A8
:1010700021E00E94B5109F918F912F9103E204BD52
:101080000CE005BD0EE707BD1FE318BD559A2F9371
:101090008F939F9324E10E94B5109F918F912F9180
:1010A00055982F938F939F9321E00E94B5109F91A5
:1010B0008F912F9103E204BD0CE005BD0DE807BD43
:1010C00017E418BD559A2F938F939F9324E10E94A4
:1010D000B5109F918F912F9155982F938F939F9338
:1010E00021E00E94B5109F918F912F9103E204BDE2
:1010F0000CE005BD0DE807BD17E418BD559A2F9308
:101100008F939F9324E10E94B5109F918F912F910F
:1011100055982F938F939F9321E00E94B5109F9134
:101120008F912F9103E204BD0CE005BD0EE707BDD2
:101130001FE318BD559A2F938F939F9324E10E942C
:10114000B5109F918F912F9155982F938F939F93C7
:1011500021E00E94B5109F918F912F9103E204BD71
:101160000CE005BD0EE707BD1FE318BD559A2F9390
:101170008F939F9324E10E94B5109F918F912F919F
:1011800055982F938F939F9321E00E94B5109F91C4
:101190008F912F9103E204BD0CE005BD0FE907BD5F
:1011A00010E518BD559A2F938F939F9324E10E94C9
:1011B000B5109F918F912F9155982F938F939F9357
:1011C00021E00E94B5109F918F912F9103E204BD01
:1011D0000CE005BD0FE907BD10E518BD559A2F932A
:1011E0008F939F9324E10E94B5109F918F912F912F
:1011F00055982F938F939F9321E00E94B5109F9154
:101200008F912F9103E204BD0CE005BD05ED07BDF4
:101210001BE618BD559A2F938F939F9324E10E944C
:10122000B5109F918F912F9155982F938F939F93E6
:1012300021E00E94B5109F918F912F9103E204BD90
:101240000CE005BD05ED07BD1BE618BD559A2F93B3
:101250008F939F9324E10E94B5109F918F912F91BE
:1012600055982F938F939F9321E00E94B5109F91E3
:101270008F912F9103E204BD0CE005BD0FE907BD7E
:1012800010E518BD559A2F938F939F9324E10E94E8
:10129000B5109F918F912F9155982F938F939F9376
:1012A00021E00E94B5109F918F912F9103E204BD20
:1012B0000CE005BD0FE907BD10E518BD559A2F9349
:1012C0008F939F9324E10E94B5109F918F912F914E
:1012D00055982F938F939F9321E00E94B5109F9173
:1012E0008F912F9103E204BD0CE005BD0DE807BD11
:1012F00017E418BD559A2F938F939F9324E10E9472
:10130000B5109F918F912F9155982F938F939F9305
:1013100021E00E94B5109F918F912F9103E204BDAF
:101320000CE005BD0DE807BD17E418BD559A2F93D5
:101330008F939F9324E10E94B5109F918F912F91DD
:1013400055982F938F939F9321E00E94B5109F9102
:101350008F912F9103E204BD0CE005BD0EE707BDA0
:101360001FE318BD559A2F938F939F9324E10E94FA
:10137000B5109F918F912F9155982F938F939F9395
:1013800021E00E94B5109F918F912F9103E204BD3F
:101390000CE005BD0EE707BD1FE318BD559A2F935E
:1013A0008F939F9324E10E94B5109F918F912F916D
:1013B00055982F938F939F9321E00E94B5109F9192
:1013C0008F912F9103E204BD0CE005BD0DE807BD30
:1013D00017E418BD559A2F938F939F9324E10E9491
:1013E000B5109F918F912F9155982F938F939F9325
:1013F00021E00E94B5109F918F912F9103E204BDCF
:101400000CE005BD0DE807BD17E418BD559A2F93F4
:101410008F939F9324E10E94B5109F918F912F91FC
:1014200055982F938F939F9321E00E94B5109F9121
:101430008F912F9103E204BD0CE005BD0FE907BDBC
:1014400010E518BD559A2F938F939F9324E10E9426
:10145000B5109F918F912F9155982F938F939F93B4
:1014600021E00E94B5109F918F912F9103E204BD5E
:101470000CE005BD0FE907BD10E518BD559A2F9387
:101480008F939F9324E10E94B5109F918F912F918C
:1014900055982F938F939F9321E00E94B5109F91B1
:1014A0008F912F9103E204BD0CE005BD0EE707BD4F
:1014B0001FE318BD559A2F938F939F9324E10E94A9
:1014C000B5109F918F912F9155982F938F939F9344
:1014D00021E00E94B5109F918F912F9103E204BDEE
:1014E0000CE005BD0FE907BD10E518BD559A2F9317
:1014F0008F939F9324E10E94B5109F918F912F911C
:1015000055982F938F939F9321E00E94B5109F9140
:101510008F912F9103E204BD0CE005BD0DE807BDDE
:1015200017E418BD559A2F938F939F9324E10E943F
:10153000B5109F918F912F9155982F938F939F93D3
:1015400021E00E94B5109F918F912F9103E204BD7D
:101550000CE005BD0DE807BD17E418BD559A2F93A3
:101560008F939F9324E10E94B5109F918F912F91AB
:1015700055982F938F939F9321E00E94B5109F91D0
:101580008F912F9103E204BD0CE005BD0EEB07BD6A
:101590001FE518BD559A2F938F939F9324E10E94C6
:1015A000B5109F918F912F9155982F938F939F9363
:1015B00021E00E94B5109F918F912F9103E204BD0D
:1015C0000CE005BD0EEB07BD1FE518BD559A2F9326
:1015D0008F939F9324E10E94B5109F918F912F913B
:1015E00055982F938F939F9321E00E94B5109F9160
:1015F0008F912F9103E204BD0CE005BD0DE807BDFE
:1016000017E418BD559A2F938F939F9324E10E945E
:10161000B5109F918F912F9155982F938F939F93F2
:1016200021E00E94B5109F918F912F9103E204BD9C
:101630000CE005BD0DE807BD17E418BD559A2F93C2
:101640008F939F9324E10E94B5109F918F912F91CA
:1016500055982F938F939F9321E00E94B5109F91EF
:101660008F912F9103E204BD0CE005BD0EE707BD8D
:101670001FE318BD559A2F938F939F9324E10E94E7
:10168000B5109F918F912F9155982F938F939F9382
:1016900021E00E94B5109F918F912F9103E204BD2C
:1016A0000CE005BD0EE707BD1FE318BD559A2F934B
:1016B0008F939F9324E10E94B5109F918F912F915A
:1016C00055982F938F939F9321E00E94B5109F917F
:1016D0008F912F9103E204BD0CE005BD06E707BD25
:1016E0001BE318BD559A2F938F939F9324E10E947B
:1016F000B5109F918F912F9155982F938F939F9312
:1017000021E00E94B5109F918F912F9103E204BDBB
:101710000CE005BD06E707BD1BE318BD559A2F93E6
:101720008F939F9324E10E94B5109F918F912F91E9
:1017300055982F938F939F9321E00E94B5109F910E
:101740008F912F9103E204BD0CE005BD0EE707BDAC
:101750001FE318BD559A2F938F939F9324E10E9406
:10176000B5109F918F912F9155982F938F939F93A1
:1017700021E00E94B5109F918F912F9103E204BD4B
:101780000CE005BD0EE707BD1FE318BD559A2F936A
:101790008F939F9324E10E94B5109F918F912F9179
:1017A00055982F938F939F9321E00E94B5109F919E
:1017B0008F912F9103E204BD0CE005BD0DE807BD3C
:1017C00017E418BD559A2F938F939F9324E10E949D
:1017D000B5109F918F912F9155982F938F939F9331
:1017E00021E00E94B5109F918F912F9103E204BDDB
:1017F0000CE005BD0DE807BD17E418BD559A2F9301
:101800008F939F9324E10E94B5109F918F912F9108
:1018100055982F938F939F9321E00E94B5109F912D
:101820008F912F9103E204BD0CE005BD0EE707BDCB
:101830001FE318BD559A2F938F939F9324E10E9425
:10184000B5109F918F912F9155982F938F939F93C0
:1018500021E00E94B5109F918F912F9103E204BD6A
:101860000CE005BD0EE707BD1FE318BD559A2F9389
:101870008F939F9324E10E94B5109F918F912F9198
:1018800055982F938F939F9321E00E94B5109F91BD
:101890008F912F9103E204BD0CE005BD03EB07BD62
:1018A0001AE518BD559A2F938F939F9324E10E94B8
:1018B000B5109F918F912F9155982F938F939F9350
:1018C00021E00E94B5109F918F912F9103E204BDFA
:1018D0000CE005BD03EB07BD1AE518BD559A2F9323
:1018E0008F939F9324E10E94B5109F918F912F9128
:1018F00055982F938F939F9321E00E94B5109F914D
:101900008F912F9103E204BD0CE005BD0FEE07BDE2
:1019100018E718BD559A2F938F939F9324E10E9447
:10192000B5109F918F912F9155982F938F939F93DF
:1019300021E00E94B5109F918F912F9103E204BD89
:101940000CE005BD0FEE07BD18E718BD559A2F93A3
:101950008F939F9324E10E94B5109F918F912F91B7
:1019600055982F938F939F9321E00E94B5109F91DC
:101970008F912F9103E204BD0CE005BD03EB07BD81
:101980001AE518BD559A2F938F939F9324E10E94D7
:10199000B5109F918F912F9155982F938F939F936F
:1019A00021E00E94B5109F918F912F9103E204BD19
:1019B0000CE005BD03EB07BD1AE518BD559A2F9342
:1019C0008F939F9324E10E94B5109F918F912F9147
:1019D00055982F938F939F9321E00E94B5109F916C
:1019E0008F912F9103E204BD0CE005BD0FE907BD07
:1019F00010E518BD559A2F938F939F9324E10E9471
:101A0000B5109F918F912F9155982F938F939F93FE
:101A100021E00E94B5109F918F912F9103E204BDA8
:101A20000CE005BD0FE907BD10E518BD559A2F93D1
:101A30008F939F9324E10E94B5109F918F912F91D6
:101A400055982F938F939F9321E00E94B5109F91FB
:101A50008F912F9103E204BD0CE005BD0DE807BD99
:101A600017E418BD559A2F938F939F9324E10E94FA
:101A7000B5109F918F912F9155982F938F939F938E
:101A800021E00E94B5109F918F912F9103E204BD38
:101A90000CE005BD0DE807BD17E418BD559A2F935E
:101AA0008F939F9324E10E94B5109F918F912F9166
:101AB00055982F938F939F9321E00E94B5109F918B
:101AC0008F912F9103E204BD0CE005BD0FE907BD26
:101AD00010E518BD559A2F938F939F9324E10E9490
:101AE000B5109F918F912F9155982F938F939F931E
:101AF00021E00E94B5109F918F912F9103E204BDC8
:101B00000CE005BD0FE907BD10E518BD559A2F93F0
:101B10008F939F9324E10E94B5109F918F912F91F5
:101B200055982F938F939F9321E00E94B5109F911A
:101B30008F912F9103E204BD0CE005BD03EB07BDBF
:101B40001AE518BD559A2F938F939F9324E10E9415
:101B5000B5109F918F912F9155982F938F939F93AD
:101B600021E00E94B5109F918F912F9103E204BD57
:101B70000CE005BD03EB07BD1AE518BD559A2F9380
:101B80008F939F9324E10E94B5109F918F912F9185
:101B900055982F938F939F9321E00E94B5109F91AA
:101BA0008F912F9103E204BD0CE005BD0DE807BD48
:101BB00017E418BD559A2F938F939F9324E10E94A9
:101BC000B5109F918F912F9155982F938F939F933D
:101BD00021E00E94B5109F918F912F9103E204BDE7
:101BE0000CE005BD03EB07BD1AE518BD559A2F9310
:101BF0008F939F9324E10E94B5109F918F912F9115
:101C000055982F938F939F9321E00E94B5109F9139
:101C10008F912F9103E204BD0CE005BD03EB07BDDE
:101C20001AE518BD559A2F938F939F9322E30E9434
:101C3000B5109F918F912F9155982F938F939F93CC
:101C400024E10E94B5109F918F912F9103E204BD72
:101C50000CE005BD06E407BD13E218BD559A2F93AD
:101C60008F939F9324E10E94B5109F918F912F91A4
:101C700055982F938F939F9321E00E94B5109F91C9
:101C80008F912F9103E204BD0CE005BD05E307BD74
:101C90001AE118BD559A2F938F939F9328E20E94C3
:101CA000B5109F918F912F9155982F938F939F935C
:101CB00021E00E94B5109F918F912F9103E204BD06
:101CC0000CE005BD0FE207BD17E118BD559A2F9333
:101CD0008F939F9324E10E94B5109F918F912F9134
:101CE00055982F938F939F9321E00E94B5109F9159
:101CF0008F912F9103E204BD0CE005BD0CE207BDFE
:101D000016E118BD559A2F938F939F9324E10E945B
:101D1000B5109F918F912F9155982F938F939F93EB
:101D200022E00E94B5109F918F912F9103E204BD94
:101D30000CE005BD08E207BD14E118BD559A2F93CC
:101D40008F939F9328E20E94B5109F918F912F91BE
:101D500055982F938F939F9321E00E94B5109F91E8
:101D60008F912F9103E204BD0CE005BD0CE207BD8D
:101D700016E118BD559A2F938F939F9328E20E94E6
:101D8000B5109F918F912F9155982F938F939F937B
:101D900021E00E94B5109F918F912F9103E204BD25
:101DA0000CE005BD0FE207BD17E118BD559A2F9352
:101DB0008F939F9324E10E94B5109F918F912F9153
:101DC00055982F938F939F9321E00E94B5109F9178
:101DD0008F912F9103E204BD0CE005BD0CE307BD1C
:101DE0001EE118BD559A2F938F939F9324E10E9473
:101DF000B5109F918F912F9155982F938F939F930B
:101E000023E00E94B5109F918F912F9103E204BDB2
:101E10000CE005BD0CE307BD1EE118BD559A2F93DC
:101E20008F939F9328E20E94B5109F918F912F91DD
:101E300055982F938F939F9321E00E94B5109F9107
:101E40008F912F9103E204BD0CE005BD06E407BDB0
:101E500013E218BD559A2F938F939F9324E10E940C
:101E6000B5109F918F912F9155982F938F939F939A
:101E700021E00E94B5109F918F912F9103E204BD44
:101E80000CE005BD03E407BD11E218BD559A2F9380
:101E90008F939F9324E10E94B5109F918F912F9172
:101EA00055982F938F939F9322E00E94B5109F9196
:101EB0008F912F9103E204BD0CE005BD0CE307BD3B
:101EC0001EE118BD559A2F938F939F9328E20E948D
:101ED000B5109F918F912F9155982F938F939F932A
:101EE00021E00E94B5109F918F912F9103E204BDD4
:101EF0000CE005BD0CE307BD1EE118BD559A2F93FC
:101F00008F939F9328E20E94B5109F918F912F91FC
:101F100055982F938F939F9321E00E94B5109F9126
:101F20008F912F9103E204BD0CE005BD0CE207BDCB
:101F300016E118BD559A2F938F939F9324E10E9429
:101F4000B5109F918F912F9155982F938F939F93B9
:101F500021E00E94B5109F918F912F9103E204BD63
:101F60000CE005BD05E307BD1AE118BD559A2F9396
:101F70008F939F9324E10E94B5109F918F912F9191
:101F800055982F938F939F9321E00E94B5109F91B6
:101F90008F912F9103E204BD0CE005BD06E407BD5F
:101FA00013E218BD559A2F938F939F9324E10E94BB
:101FB000B5109F918F912F9155982F938F939F9349
:101FC00021E00E94B5109F918F912F9103E204BDF3
:101FD0000CE005BD05E307BD1AE118BD559A2F9326
:101FE0008F939F9328E20E94B5109F918F912F911C
:101FF00055982F938F939F9321E00E94B5109F9146
:102000008F912F9103E204BD0CE005BD0FE207BDE7
:1020100017E118BD559A2F938F939F9324E10E9447
:10202000B5109F918F912F9155982F938F939F93D8
:1020300021E00E94B5109F918F912F9103E204BD82
:102040000CE005BD0CE207BD16E118BD559A2F93B3
:102050008F939F9324E10E94B5109F918F912F91B0
:1020600055982F938F939F9322E00E94B5109F91D4
:102070008F912F9103E204BD0CE005BD08E207BD7E
:1020800014E118BD559A2F938F939F9328E20E94D5
:10209000B5109F918F912F9155982F938F939F9368
:1020A00021E00E94B5109F918F912F9103E204BD12
:1020B0000CE005BD0CE207BD16E118BD559A2F9343
:1020C0008F939F9328E20E94B5109F918F912F913B
:1020D00055982F938F939F9321E00E94B5109F9165
:1020E0008F912F9103E204BD0CE005BD0FE207BD07
:1020F00017E118BD559A2F938F939F9324E10E9467
:10210000B5109F918F912F9155982F938F939F93F7
:1021100021E00E94B5109F918F912F9103E204BDA1
:102120000CE005BD0CE307BD1EE118BD559A2F93C9
:102130008F939F9324E10E94B5109F918F912F91CF
:1021400055982F938F939F9326E90E94B5109F91E6
:102150008F912F912F938F939F9328EC0E94B5100E
:102160009F918F912F910C9400008EE39CE9019731
:0A217000F1F72A95D1F70000089559
:00000001FF
